:03000000020BA34D
:0C0BA300787FE4F6D8FD75814B020BEA68
:100CBA00C0F9A4B0999282F88090F7FBFDFE4154E6
:100CCA002B43495053544152543D22544350222CF1
:100CDA00223139322E3136382E312E313031222C12
:100CEA00383838380D0A0D0A0041542B43495053FD
:100CFA00454E443D380D0A0D0A0041542B434950D4
:100D0A00434C4F53450D0A0D0A31323334353637C9
:090D1A00383539363831353632EE
:10101800021100008A00000000000000000000002B
:0A1028000108000115000213000A80
:100E46008E118F12120D23D3E5109400E50F6480E6
:100E560094804003020E81D3E50E9400E50D648074
:100E660094804003020FB3D3E50C9400E50B648035
:0B0E7600948040030200031210482289
:040F89007F017E0066
:100F8D00E4FDFCC3ED9FEE6480F8EC648098501591
:100F9D00E4FBFA0BBB00010ABA02F8BB26F50DBD46
:050FAD0000010C80DED4
:010FB200221C
:100D2300AE11AF127C037DE812056A8E0F8F10AEF1
:100D330011AF127C037DE812056A7E007F64CFCD7C
:100D4300CFCECCCE12056A8E0D8F0EAE11AF127CB4
:100D5300007D6412056A7E007F0ACFCDCFCECCCE54
:100D630012056A8E0B8F0CAE11AF127C007D0A1236
:070D7300056A8C098D0A22BC
:0E104800900CC4E493F5A0AF0AAE09020FEEBF
:10000300E4F52DF52E900CC593F5A0AF0CAE0B12B5
:0E0013000FEE7F02120FDE7F027E00020F8DC5
:100FB300900CC6E493F5A0AF0EAE0D120FEE120F18
:100FC30089900CC5E493F5A0AF0CAE0B120FEE1293
:090FD3000FDC7F027E00020F8D8D
:100E8100900CC7E493F5A0AF10AE0F120FEE120F46
:100E910089900CC6E493F5A0AF0EAE0D120FEE12C1
:100EA1000F89900CC5E493F5A0AF0CAE0B120FEEB9
:0A0EB100120FDC7F017E00020F8D9E
:100FDC007F017E00120F8D900CC4E493F5A0AF0A34
:020FEC00AE094C
:0F0FEE0074BA2FF582740C3EF583E493F58022DC
:100FFD00C2AB53890F438920758DFD758BFDD28E44
:0B100D00C29FD29ED29CD2AFD2AC2278
:100EBB00E4FE780A7C007DFE7BFF7A0C79C87F2BE1
:100ECB00120544C299E4FEFF740A2FF8E2F599303B
:100EDB0099FDC2990FBF00010EEF642B4E70E97F95
:060EEB000A7E00020F8DDB
:100EF100E4FE780A7C007DFE7BFF7A0C79F37F119A
:100F0100120544C299E4FEFF740A2FF8E2F5993004
:100F110099FDC2990FBF00010EEF64114E70E97F78
:060F21000A7E00020F8DA4
:100F2700E4FE780A7C007DFE7BFF7A0D79047F0F53
:100F3700120544C299E4FEFF740A2FF8E2F59930CE
:100F470099FDC2990FBF00010EEF640F4E70E97F44
:060F57000A7E00020F8D6E
:060E06008B308A318932B5
:100E0C00E4F533F53478357C00FD7BFF7A0D7913EE
:100E1C00FE7F08120544C29974352534F8E6F5991D
:100E2C003099FDC2990534E53470020533640845E8
:0A0E3C003370E57F0A7E00020F8D7F
:04063C008E368F3730
:10064000E4F53BF53AF539F538F53C753D01C3E580
:100650003D9537E5366480F8E53C648098400302B8
:1006600006E5AB3BAA3AA939A838C000C001C002D0
:10067000C003E53724FFFFE53634FFFEC3EF953DA9
:10068000FDEE953CFC1202A28F458E448D438C42B8
:100690007F007E007D207C411209F2C004C005C0AD
:1006A00006C0077400253DF8E2FF3395E0FEEF2415
:1006B000D0FDEE34FFFC1202A2D003D002D001D054
:1006C0000012011ED003D002D001D00012002D8FE5
:1006D0003B8E3A8D398C38053DE53D600302064E70
:1006E000053C02064E053DE53D7002053C753600B1
:1006F0007537017BFE7A007900121033EF24FFFF7B
:10070000EE34FFFEC3E53D9FE53C9E507EAB3BAA29
:100710003AA939A838C000C001C002C003C3E4959B
:1007200037FDE49536FC1202A28F458E448D438C32
:10073000427F007E007D207C411209F2C004C0058A
:10074000C006C0077400253DF8E2FF3395E0FEEFD8
:1007500024D0FDEE34FFFC1202A2D003D002D0015F
:10076000D00012011ED003D002D001D00012002D03
:100770008F3B8E3A8D398C38053DE53D7002053C46
:100780000537E537700205360206F3AF3BAE3AADEA
:0307900039AC3849
:010793002243
:1008C900E4F530F531F535F534F533F532F53075B4
:1008D90031017BFE7A007900121033EF24FFFFEE1D
:1008E90034FFFEC3E5319FE5309E501A740025316F
:1008F900F8E2B42E07AF31AE3002063C0531E531DE
:1009090070D0053080CC7530007531017BFE7A00DE
:100919007900121033EF24FFFFEE34FFFEC3E531F7
:100929009FE5309E40030209BDAB35AA34A933A81F
:1009390032C000C001C002C0037BFE7A00790012F8
:100949001033EF24FEFFEE34FFFEC3EF9531FDEEC9
:100959009530FCE41202A28F458E448D438C427F70
:10096900007E007D207C411209F2C004C005C0064A
:10097900C00774002531F8E2FF3395E0FEEF24D07B
:10098900FDEE34FFFC1202A2D003D002D001D00048
:1009990012011ED003D002D001D00012002D8F35D4
:1009A9008E348D338C320531E5316003020915052A
:1009B900300209157BFE7A007900121033D3EF94C7
:1009C90004EE9400401AAF35AE34AD33AC32E4FBDB
:1009D900FA7980783F12002D8F358E348D338C3221
:0809E900AF35AE34AD33AC3282
:0109F10022E3
:100F5D00900000E515601DE582643145837005FF45
:100F6D00FEFDFC227F147E00120F8DA3E5826432FC
:0B0F7D00458370DFE4FFFE7D807C3FB9
:010F88002246
:100DC5008B2D8A2E892FE4F515120EBB120EF1AB71
:100DD5002DAA2EA92F120E06120F27751501120E18
:100DE500BB7F0A7E00120F8D120F5DE4FBFAF9F846
:100DF5001202247005FFFEFDFC22120F271208C9FE
:010E050022CA
:07105600120FFD120DC5226F
:03002300020C2F9D
:100C2F00C0E0C0F0C083C082C0D075D000C000C08B
:100C3F0001C002C003C004C005C006C007C298852A
:100C4F009908E515640170487BFE7A00790012104F
:100C5F0033EF4E60107BFE7A007900121033740070
:100C6F002FF8E508F2E508B423107BFE7A0079002F
:100C7F0012103374002FF8E508F2E508B440117B29
:100C8F00FE7A00790012103374002FF8E4F2F51594
:100C9F00D007D006D005D004D003D002D001D000A9
:0B0CAF00D0D0D082D083D0F0D0E03253
:100D7A0078217C007D007BFF7A0D791B7E007F083D
:100D8A001205447B007A0079211210568F2C8E2B83
:100D9A008D2A8C297F5C7E8F7D1A7C41AB2CAA2BF5
:100DAA00A92AA82912022470097FC67E03120E46B8
:0B0DBA0080F77F4D7E01120E4680F78F
:10002600020310E86480F8E933E83360110460F0F5
:10003600ED33EC337009E8FCE9FDEAFEEBFF220440
:1000460060DED3EB9FEA9EE99DE8C2E78CF0C2F73B
:1000560095F0400CE8CCF8E9CDF9EACEFAEBCFFB07
:100066001202DB85D0F05804700320D5B3E8047083
:10007600075002B2D502031A92D5EC0460F7E4CC1D
:10008600C0E0C398F8603B94186008400DD0E0FBD0
:100096000202F2E4FBFAC9FC8028E830E406E4C96F
:1000A600FBE4CAFCE830E305E4C9CACBFCE8540724
:1000B6006010F8C3E913F9EA13FAEB13FBEC13FC2F
:1000C600D8F130F52FC3E49CFCEF9BFFEE9AFEEDD2
:1000D60099FDD0E0FBEF4E4D4C701222DB0302037C
:1000E60017EC2CFCEF33FFEE33FEED33FDED30E77E
:1000F600EB0202F2EF2BFFEE3AFEED39FDD0E0FB0C
:1001060050130BBB000302031AED13FDEE13FEEFB3
:0801160013FFEC13FC0202F2DE
:10011E00EC4D6011E8497017ED33EC3304600DE4DB
:10012E00FCFFFEFD22E933E8330470F802031012DF
:10013E0002DB58046009E4CC2481500628500902E1
:10014E00031A284003020317C0E0EB4A7044B9803B
:10015E0006D0E0FB020306EF4E701CBD8008EBFFDD
:10016E00EAFEE9FD80EBE98DF0A4FEE5F002020760
:10017E00E9CDF9EAFEEBFFEF89F0A4FCE5F0CE89BC
:10018E00F0A42EFFE435F0CD89F0A42DFEE435F079
:10019E008067EF4E7005BD80D780C3EF8BF0A4ACA7
:1001AE00F0EE8BF0A42CFCE435F0F8EF8AF0A42CE2
:1001BE00E5F038FCE433CB8DF0A42CFCE5F03BF8F5
:1001CE00EE8AF0A42CFCE5F038F8E433CF89F0A4E5
:1001DE002CFCE5F038CF3400CE89F0A42FFFE5F0EB
:1001EE003EFEE433C98DF0A42EFEE5F039CD8AF043
:1001FE00A42FFFE5F03EFEE43DFD33D0E0FB5007BB
:10020E000BBB000F02031AEC2CFCEF33FFEE33FE98
:06021E00ED33FD0202F2C7
:1002240074F8CC6480CCC86480C8F58204604FC381
:10023400EB9FF5F0EA9E42F0E99D42F0E89C45F020
:10024400603C501DE5825FFFE582D313CB5BCBF4AA
:100254002B5582FB50280ABA002409B900200880D3
:100264001DE5825BFBE582D313CF5FCFF4C3132F6D
:100274005582FF50090EBE00050DBD00010CC3EBF5
:100284009FF5F0EA9E42F0E99D42F0E89C45F0605B
:0902940007CC4820E701B3EC227D
:10029D0075F020800E75F010800575F0087D007EDC
:1002AD00007F003392D530D5031205A0EC334010FA
:1002BD00EF33FFEE33FEED33FDEC33FCD5F0ED22E5
:0E02CD00E5F0247EA2D513CC92E7CDCEFF2221
:1009F2008F418E408D3F8C3EE4FFFE7D807C3FAB7D
:100A020041AA40A93FA83E1202247009AF41AE405C
:100A1200AD3FAC3E22AF41AE40AD3FAC3E120325EE
:100A2200FBAF45AE44AD43AC42120325FFBF010804
:100A3200E4FFFE7D807C3F22EF64046022EB6404CD
:100A4200601DBB0127E4FFFEFDFCAB45AA44A943A0
:100A5200A84212022460084006E4FFFEFDFC227454
:100A6200FFF545F544F543F542020B00E4F546F582
:100A720047FFFEFDFCAB41AA40A93FA83E1202245B
:100A8200504BAF45AE44AD43AC421203508E468F3D
:100A920047AC46AD47EC1202A2C8ECC8C9EDC9CAC0
:100AA200EECACBEFCBAF45AE44AD43AC4212002908
:100AB200E4FBFAF9F812022470A5AF41AE40AD3F53
:100AC200AC3E12033F8F418E408D3F8C3EAF41AE14
:100AD20040AD3FAC3E1207C8AB45AA44A943A84269
:100AE20012011E120B418F458E448D438C42E54705
:100AF20030E00B12033F8F458E448D438C42AF454D
:070B0200AE44AD43AC4222FA
:1002DB00E9D2E7C933E833F892D5EDD2E7CD33EC69
:0702EB0033FC5002B2D522E2
:1002F200EC30E7100FBF000C0EBE00080DBD00046D
:100302000BEB6014A2D5EB13FCED92E7FD2274FF18
:10031200FCFDFEFF22E480F8A2D574FF13FC7D8071
:03032200E480EF85
:10032500ED33EC33601004700FED547F70057402EB
:0A03350092E0227404220422E42264
:10033F00ED33EC33600A047003BD8004ECB2E7FCCC
:01034F00228B
:10035000EDD2E7CD33EC3392D524814006E4FFFEA5
:10036000FDFC22FCE4CFCECDCC24E0501174FF8004
:10037000EDC3CC13CCCD13CDCE13CECF13CF0470A1
:07038000F030D5DE0205A0FC
:100B090033DA929E35B16011377FE5FE3921848948
:100B19003AAEC3FF3C1D955B3D6358473E75FDF0FA
:100B29003F3172183F800000C2D502031A02031038
:100B3900BD80FA50F3020317ED33EC330460F17B07
:100B49003B7AAA79B8783F12011EED33EC3392D57E
:100B5900247B5011A2D570DB500BED448024045046
:100B690004A2D580CEEFFBEEFAEDF9ECF8120350B2
:100B7900EFF582F404FC1202A712002DC082900B3B
:100B8900097409120436ED33CC33D0F092D525F02F
:0A0B9900A2D57001C313CC13FD2296
:100794003E9248DA3ECCCCCD3F2AAAAB40000000C2
:1007A4003F8000003F9837F03FB504F33FD744FC47
:1007B4003E3172173EB172173F0515913EDE5BD98B
:1007C400D2008002C200EDD2E7F8CD33EC330470DE
:1007D4000BBD800592D502031A02031040FBD3140B
:1007E40060F2F5F07C3FEE7A00C39496C8948B4097
:1007F400230AC89469C8941A401A0AC89468C89409
:100804001F40110AC8945AC89425400805F07A007C
:10081400CDC2E7CDC0F08C488D498E4A8F4BEA2378
:1008240023C0E024A4F582E43407F5831205BE1244
:10083400002DECC0E0EDC0E0EEC0E0EFC0E012053A
:10084400AEA848A949AA4AAB4B120029D0E0FBD074
:10085400E0FAD0E0F9D0E0B2E7F812038A8C488DD0
:10086400498E4A8F4B9007947403120427A848A911
:1008740049AA4AAB4B12011ED0E0600F24B0F582A6
:10088400E43407F5831205BE12002D8C488D498E81
:100894004A8F4BD0E0C3947FFDE49400FC1202A283
:1008A4007B187A727931783F12011EA848A949AAA7
:1008B4004AAB4B12002D30000B7BD97A5B79DE7882
:0508C4003E12011E229E
:1003870002031AEC5D046005E859047003020310C8
:100397001202DB580460F6EC4860F2EC7004FDFED4
:1003A700FF22C860DB2481C85009C3986002500649
:1003B7000203179850CAF582E9294B4A7005AB82A8
:1003C70002030675F0007C1A7880C3EF9BEE9AED66
:1003D70099400DC3EF9BFFEE9AFEED99FDE842F0C1
:1003E700DC23ACF0D0E0FFD0E0FED0E0FDAB822014
:1003F700E7101BEB60BAEC2CFCEF33FFEE33FEED9E
:1004070033FD0202F2E803F830E705C0F075F000AB
:10041700EF2FFFEE33FEED33FD40B830E7C280AA81
:10042700C0E0EFFBEEFAEDF9ECF812011ED0E0F5B3
:10043700F0EFFBEEFAEDF9ECF81205AEA3A3A3A3D8
:10044700E8C0E0E9C0E0EAC0E0EBC0E0C0F01201BC
:100457001E1205BEA3A3A3A312002DD0F0D0E0FB6C
:0D046700D0E0FAD0E0F9D0E0F8D5F0D422D2
:100BAF00020D7AE493A3F8E493A34003F68001F2D5
:100BBF0008DFF48029E493A3F85407240CC8C33347
:100BCF00C4540F4420C8834004F456800146F6DF16
:100BDF00E4800B0102040810204080901018E47E7E
:100BEF00019360BCA3FF543F30E509541FFEE4930B
:100BFF00A360010ECF54C025E060A840B8E493A3D2
:100C0F00FAE493A3F8E493A3C8C582C8CAC583CAFC
:100C1F00F0A3C8C582C8CAC583CADFE9DEE780BEB4
:0110320000BD
:10047400E709F608DFFA8046E709F208DFFA803E6A
:1004840088828C83E709F0A3DFFA8032E309F60857
:10049400DFFA8078E309F208DFFA807088828C83BF
:1004A400E309F0A3DFFA806489828A83E0A3F60873
:1004B400DFFA805889828A83E0A3F208DFFA804C4D
:1004C40080D280FA80C680D4806980F28033801024
:1004D40080A680EA809A80A880DA80E280CA80338D
:1004E40089828A83ECFAE493A3C8C582C8CCC58305
:1004F400CCF0A3C8C582C8CCC583CCDFE9DEE780D5
:100504000D89828A83E493A3F608DFF9ECFAA9F053
:10051400EDFB2289828A83ECFAE0A3C8C582C8CCA9
:10052400C583CCF0A3C8C582C8CCC583CCDFEADEC2
:10053400E880DB89828A83E493A3F208DFF980CC24
:1005440088F0EF60010E4E60C388F0ED2402B4041D
:100554000050B9F582EB2402B4040050AF232345C4
:0605640082239004C47321
:10056A00C2D5EC30E709B2D5E4C39DFDE49CFCEEAC
:10057A0030E715B2D5E4C39FFFE49EFE1205E7C338
:10058A00E49DFDE49CFC80031205E730D507C3E433
:06059A009FFFE49EFE221B
:0E05A000C3E49FFFE49EFEE49DFDE49CFC226C
:1005AE00E493FC740193FD740293FE740393FF2293
:1005BE00E493F8740193F9740293FA740393FB2293
:10103300E4FFFE1205CE600C0FEF70010E09E9709C
:05104300F20A80EF221B
:1005CE00BB010689828A83E0225002E722BBFE022B
:0905DE00E32289828A83E493225E
:1005E700BC000BBE0029EF8DF084FFADF022E4CCF8
:1005F700F875F008EF2FFFEE33FEEC33FCEE9DECC1
:10060700984005FCEE9DFE0FD5F0E9E4CEFD22ED06
:10061700F8F5F0EE8420D21CFEADF075F008EF2F50
:10062700FFED33FD4007985006D5F0F222C398FD41
:050637000FD5F0EA22DE
:00000001FF
