:03000000020A23CE
:0C0A2300787FE4F6D8FD75813F020A6A76
:100BAF00C0F9A4B0999282F88090F7FBFDFE4154F2
:100BBF002B43495053544152543D22544350222CFD
:100BCF00223139322E3136382E312E313031222C1E
:100BDF00383038300D0A0D0A0041542B4349505319
:100BEF00454E443D380D0A0D0A0041542B434950E0
:100BFF00434C4F53450D0A0D0A35393638313536CA
:010C0F0032B2
:100E7300021100008A0000000000000000000000D2
:060E83000108000113004C
:100C67008E118F12120C10D3E5109400E50F6480DB
:100C770094804003020CA2D3E50E9400E50D648036
:100C870094804003020E06D3E50C9400E50B6480C4
:0B0C970094804003020003120E9F2215
:040DDC007F017E0015
:100DE000E4FDFCC3ED9FEE6480F8EC648098501540
:100DF000E4FBFA0BBB00010ABA02F8BB26F50DBDF5
:050E000000010C80DE82
:010E050022CA
:100C1000AE11AF127C037DE81205978E0F8F10AED8
:100C200011AF127C037DE81205977E007F64CFCD63
:100C3000CFCECCCE1205978E0D8F0EAE11AF127C9B
:100C4000007D641205977E007F0ACFCDCFCECCCE3B
:100C50001205978E0B8F0CAE11AF127C007D0A121D
:070C600005978C098D0A22A3
:0E0E9F00900BB9E493F5A0AF0AAE09020B4C1C
:10000300E4F52BF52C900BBA93F5A0AF0CAE0B12C5
:0E0013000B4C7F02120B3C7F027E00020DE0C0
:100E0600900BBBE493F5A0AF0EAE0D120B4C120D7A
:100E1600DC900BBAE493F5A0AF0CAE0B120B4C12A0
:090E26000B3A7F027E00020DE090
:100CA200900BBCE493F5A0AF10AE0F120B4C120DDB
:100CB200DC900BBBE493F5A0AF0EAE0D120B4C1201
:100CC2000DDC900BBAE493F5A0AF0CAE0B120B4CFB
:0A0CD200120B3A7F017E00020DE0D4
:100B3A007F017E00120DE0900BB9E493F5A0AF0A95
:020B4A00AE09F2
:100B4C00EE705FEFB40A005059900B5CF8282873D4
:100B5C00020B7A020B7F020B84020B89020B8E02B2
:100B6C000B93020B98020B9D020BA2020BA7900B8E
:100B7C00AF802B900BB08026900BB18021900BB2E4
:100B8C00801C900BB38017900BB48012900BB58027
:100B9C000D900BB68008900BB78003900BB8E493C4
:030BAC00F58022AF
:100E5800C2AB53890F438920758DFD758BFDD28EEA
:0B0E6800C29FD29ED29CD2AFD2AC221F
:100CDC00E4FE780A7C007DFE7BFF7A0B79BD7F2BCE
:100CEC00120544C299E4FEFF740A2FF8E2F599301C
:100CFC0099FDC2990FBF00010EEF642B4E70E97F76
:060D0C000A7E00020DE06A
:100D1200E4FE780A7C007DFE7BFF7A0B79E87F1186
:100D2200120544C299E4FEFF740A2FF8E2F59930E5
:100D320099FDC2990FBF00010EEF64114E70E97F59
:060D42000A7E00020DE034
:100D4800E4FE780A7C007DFE7BFF7A0B79F97F0F41
:100D5800120544C299E4FEFF740A2FF8E2F59930AF
:100D680099FDC2990FBF00010EEF640F4E70E97F25
:060D78000A7E00020DE0FE
:060D7E008B2E8A2F893044
:100D8400E4FFFEC299AB2EAA2FA9308F828E831264
:100D9400056AF5993099FDC2990FBF00010EEF6401
:0B0DA400084E70E17F0A7E00020DE0A7
:1008B500E4F52EF52FF530F531F52E752F017BFE7C
:1008C5007A007900120E8AEF24FFFFEE34FFFEC393
:1008D500E52F9FE52E9E400302096A7BFE7A00798B
:1008E50000120E8AEF24FEFFEE34FFFEC3EF952FB4
:1008F500FDEE952EFCE41202298F398E388D378C4A
:10090500367F007E007D207C4112079EC004C00515
:10091500C006C0077400252FF8E2FF3395E0FEEF0F
:1009250024D0FDEE34FFFC120229D003D002D00101
:10093500D00012011EC004C005C006C007AC30AD12
:1009450031EC120229D003D002D001D00012002DC3
:100955001202628E308F31052FE52F60030208C326
:10096500052E0208C37BFE7A007900120E8AD3EFAA
:100975009404EE940040080531E53170020530AE6F
:0309850030AF315F
:01098800224C
:100DAF008B2B8A2C892D120CDC120D12AB2BAA2C3B
:100DBF00A92D120D7E120D48751301120CDC7F0A3E
:0D0DCF007E00120DE0E51370FC1208B52245
:070EAD00120E58120DAF22D6
:03002300020AAF1F
:100AAF00C0E0C0F0C083C082C0D075D000C000C00D
:100ABF0001C002C003C004C005C006C007C29885AC
:100ACF009908E513640170487BFE7A007900120ED5
:100ADF008AEF4E60107BFE7A007900120E8A740046
:100AEF002FF8E508F2E508B423107BFE7A007900B1
:100AFF00120E8A74002FF8E508F2E508B440117B56
:100B0F00FE7A007900120E8A74002FF8E4F2F513C2
:100B1F00D007D006D005D004D003D002D001D0002A
:0B0B2F00D0D0D082D083D0F0D0E032D4
:100E2F0078217C007D007BFF7A0C79087E007F089B
:100E3F001205447B007A007921120EAD8E298F2A7C
:090E4F00AF2AAE29120C6780F7EE
:100026000202CEE86480F8E933E83360110460F038
:10003600ED33EC337009E8FCE9FDEAFEEBFF220440
:1000460060DED3EB9FEA9EE99DE8C2E78CF0C2F73B
:1000560095F0400CE8CCF8E9CDF9EACEFAEBCFFB07
:1000660012029985D0F05804700320D5B3E80470C5
:10007600075002B2D50202D892D5EC0460F7E4CC60
:10008600C0E0C398F8603B94186008400DD0E0FBD0
:100096000202B0E4FBFAC9FC8028E830E406E4C9B1
:1000A600FBE4CAFCE830E305E4C9CACBFCE8540724
:1000B6006010F8C3E913F9EA13FAEB13FBEC13FC2F
:1000C600D8F130F52FC3E49CFCEF9BFFEE9AFEEDD2
:1000D60099FDD0E0FBEF4E4D4C701222DB0302027D
:1000E600D5EC2CFCEF33FFEE33FEED33FDED30E7C0
:1000F600EB0202B0EF2BFFEE3AFEED39FDD0E0FB4E
:1001060050130BBB00030202D8ED13FDEE13FEEFF6
:0801160013FFEC13FC0202B020
:10011E00EC4D6011E8497017ED33EC3304600DE4DB
:10012E00FCFFFEFD22E933E8330470F80202CE1222
:10013E00029958046009E4CC248150062850090223
:10014E0002D82840030202D5C0E0EB4A7044B980C1
:10015E0006D0E0FB0202C4EF4E701CBD8008EBFF20
:10016E00EAFEE9FD80EBE98DF0A4FEE5F002020760
:10017E00E9CDF9EAFEEBFFEF89F0A4FCE5F0CE89BC
:10018E00F0A42EFFE435F0CD89F0A42DFEE435F079
:10019E008067EF4E7005BD80D780C3EF8BF0A4ACA7
:1001AE00F0EE8BF0A42CFCE435F0F8EF8AF0A42CE2
:1001BE00E5F038FCE433CB8DF0A42CFCE5F03BF8F5
:1001CE00EE8AF0A42CFCE5F038F8E433CF89F0A4E5
:1001DE002CFCE5F038CF3400CE89F0A42FFFE5F0EB
:1001EE003EFEE433C98DF0A42EFEE5F039CD8AF043
:1001FE00A42FFFE5F03EFEE43DFD33D0E0FB5007BB
:10020E000BBB000F0202D8EC2CFCEF33FFEE33FEDB
:06021E00ED33FD0202B009
:1002240075F020800E75F010800575F0087D007E55
:10023400007F003392D530D5031205CDEC33401046
:10024400EF33FFEE33FEED33FDEC33FCD5F0ED225E
:0E025400E5F0247EA2D513CC92E7CDCEFF229A
:10026200EDD2E7CD33EC3392D524814006E4FFFE94
:10027200FDFC22FCE4CFCECDCC24E0501174FF80F3
:10028200EDC3CC13CCCD13CDCE13CECF13CF047090
:07029200F030D5DE0205CDBE
:10079E008F358E348D338C32E4FFFE7D807C3FAB03
:1007AE0035AA34A933A8321202FD7009AF35AE3422
:1007BE00AD33AC3222AF35AE34AD33AC321202E3D0
:1007CE00FBAF39AE38AD37AC361202E3FFBF0108CE
:1007DE00E4FFFE7D807C3F22EF64046022EB640424
:1007EE00601DBB0127E4FFFEFDFCAB39AA38A9371B
:1007FE00A8361202FD60084006E4FFFEFDFC2274DE
:10080E00FFF539F538F537F5360208ACE4F53AF56B
:10081E003BFFFEFDFCAB35AA34A933A8321202FD14
:10082E00504BAF39AE38AD37AC361202628E3A8FBE
:10083E003BAC3AAD3BEC120229C8ECC8C9EDC9CAB3
:10084E00EECACBEFCBAF39AE38AD37AC361200298E
:10085E00E4FBFAF9F81202FD70A5AF35AE34AD33F4
:10086E00AC321203768F358E348D338C32AF35AE7B
:10087E0034AD33AC3212069DAB39AA38A937A8363F
:10088E0012011E1209C18F398E388D378C36E53B19
:10089E0030E00B1203768F398E388D378C36AF39A8
:0708AE00AE38AD37AC362275
:10029900E9D2E7C933E833F892D5EDD2E7CD33ECAB
:0702A90033FC5002B2D52224
:1002B000EC30E7100FBF000C0EBE00080DBD0004AF
:1002C0000BEB6014A2D5EB13FCED92E7FD2274FF5B
:1002D000FCFDFEFF22E480F8A2D574FF13FC7D80B4
:0302E000E480EFC8
:1002E300ED33EC33601004700FED547F700574022E
:0A02F30092E0227404220422E422A7
:1002FD0074F8CC6480CCC86480C8F58204604FC3A8
:10030D00EB9FF5F0EA9E42F0E99D42F0E89C45F046
:10031D00603C501DE5825FFFE582D313CB5BCBF4D0
:10032D002B5582FB50280ABA002409B900200880F9
:10033D001DE5825BFBE582D313CF5FCFF4C3132F93
:10034D005582FF50090EBE00050DBD00010CC3EB1B
:10035D009FF5F0EA9E42F0E99D42F0E89C45F06081
:09036D0007CC4820E701B3EC22A3
:10037600ED33EC33600A047003BD8004ECB2E7FC95
:010386002254
:1009890033DA929E35B16011377FE5FE39218489CA
:100999003AAEC3FF3C1D955B3D6358473E75FDF07C
:1009A9003F3172183F800000C2D50202D80202CE40
:1009B900BD80FA50F30202D5ED33EC330460F17BCC
:1009C9003B7AAA79B8783F12011EED33EC3392D500
:1009D900247B5011A2D570DB500BED4480240450C8
:1009E90004A2D580CEEFFBEEFAEDF9ECF812026223
:1009F900EFF582F404FC12022E12002DC082900938
:100A0900897409120436ED33CC33D0F092D525F030
:0A0A1900A2D57001C313CC13FD2217
:100669003E9248DA3ECCCCCD3F2AAAAB40000000EE
:100679003F8000003F9837F03FB504F33FD744FC73
:100689003E3172173EB172173F0515913EDE5BD9B7
:10069900D2008002C200EDD2E7F8CD33EC3304700A
:1006A9000BBD800592D50202D80202CE40FBD314BD
:1006B90060F2F5F07C3FEE7A00C39496C8948B40C3
:1006C900230AC89469C8941A401A0AC89468C89435
:1006D9001F40110AC8945AC89425400805F07A00A9
:1006E900CDC2E7CDC0F08C3C8D3D8E3E8F3FEA23D5
:1006F90023C0E02479F582E43406F5831205EB1270
:10070900002DECC0E0EDC0E0EEC0E0EFC0E0120566
:10071900DBA83CA93DAA3EAB3F120029D0E0FBD0A3
:10072900E0FAD0E0F9D0E0B2E7F812038A8C3C8D08
:100739003D8E3E8F3F9006697403120427A83CA999
:100749003DAA3EAB3F12011ED0E0600F2485F58221
:10075900E43406F5831205EB12002D8C3C8D3D8E99
:100769003E8F3FD0E0C3947FFDE49400FC12022940
:100779007B187A727931783F12011EA83CA93DAAEB
:100789003EAB3F12002D30000B7BD97A5B79DE78C6
:050799003E12011E22CA
:100387000202D8EC5D046005E8590470030202CE4E
:10039700120299580460F6EC4860F2EC7004FDFE16
:1003A700FF22C860DB2481C85009C3986002500649
:1003B7000202D59850CAF582E9294B4A7005AB82EB
:1003C7000202C475F0007C1A7880C3EF9BEE9AEDA9
:1003D70099400DC3EF9BFFEE9AFEED99FDE842F0C1
:1003E700DC23ACF0D0E0FFD0E0FED0E0FDAB822014
:1003F700E7101BEB60BAEC2CFCEF33FFEE33FEED9E
:1004070033FD0202B0E803F830E705C0F075F000ED
:10041700EF2FFFEE33FEED33FD40B830E7C280AA81
:10042700C0E0EFFBEEFAEDF9ECF812011ED0E0F5B3
:10043700F0EFFBEEFAEDF9ECF81205DBA3A3A3A3AB
:10044700E8C0E0E9C0E0EAC0E0EBC0E0C0F01201BC
:100457001E1205EBA3A3A3A312002DD0F0D0E0FB3F
:0D046700D0E0FAD0E0F9D0E0F8D5F0D422D2
:100A2F00020E2FE493A3F8E493A34003F68001F2A0
:100A3F0008DFF48029E493A3F85407240CC8C333C8
:100A4F00C4540F4420C8834004F456800146F6DF97
:100A5F00E4800B0102040810204080900E73E47EA6
:100A6F00019360BCA3FF543F30E509541FFEE4938C
:100A7F00A360010ECF54C025E060A840B8E493A353
:100A8F00FAE493A3F8E493A3C8C582C8CAC583CA7E
:100A9F00F0A3C8C582C8CAC583CADFE9DEE780BE36
:010E89000068
:10047400E709F608DFFA8046E709F208DFFA803E6A
:1004840088828C83E709F0A3DFFA8032E309F60857
:10049400DFFA8078E309F208DFFA807088828C83BF
:1004A400E309F0A3DFFA806489828A83E0A3F60873
:1004B400DFFA805889828A83E0A3F208DFFA804C4D
:1004C40080D280FA80C680D4806980F28033801024
:1004D40080A680EA809A80A880DA80E280CA80338D
:1004E40089828A83ECFAE493A3C8C582C8CCC58305
:1004F400CCF0A3C8C582C8CCC583CCDFE9DEE780D5
:100504000D89828A83E493A3F608DFF9ECFAA9F053
:10051400EDFB2289828A83ECFAE0A3C8C582C8CCA9
:10052400C583CCF0A3C8C582C8CCC583CCDFEADEC2
:10053400E880DB89828A83E493A3F208DFF980CC24
:1005440088F0EF60010E4E60C388F0ED2402B4041D
:100554000050B9F582EB2402B4040050AF232345C4
:0605640082239004C47321
:10056A00BB010CE58229F582E5833AF583E0225046
:10057A0006E92582F8E622BBFE06E92582F8E22290
:0D058A00E58229F582E5833AF583E49322AA
:10059700C2D5EC30E709B2D5E4C39DFDE49CFCEE7F
:1005A70030E715B2D5E4C39FFFE49EFE120614C3DD
:1005B700E49DFDE49CFC800312061430D507C3E4D8
:0605C7009FFFE49EFE22EE
:0E05CD00C3E49FFFE49EFEE49DFDE49CFC223F
:1005DB00E493FC740193FD740293FE740393FF2266
:1005EB00E493F8740193F9740293FA740393FB2266
:100E8A00E4FFFE1205FB600C0FEF70010E09E9701A
:050E9A00F20A80EF22C6
:1005FB00BB010689828A83E0225002E722BBFE02FE
:09060B00E32289828A83E4932230
:10061400BC000BBE0029EF8DF084FFADF022E4CCCA
:10062400F875F008EF2FFFEE33FEEC33FCEE9DEC93
:10063400984005FCEE9DFE0FD5F0E9E4CEFD22EDD9
:10064400F8F5F0EE8420D21CFEADF075F008EF2F23
:10065400FFED33FD4007985006D5F0F222C398FD14
:050664000FD5F0EA22B1
:00000001FF
