:03000000020BD020
:0C0BD000787FE4F6D8FD75814B020C170D
:100CE700C0F9A4B0999282F88090F7FBFDFE4154B9
:100CF7002B43495053544152543D22544350222CC4
:100D0700223139322E3136382E312E313031222CE4
:100D1700383838380D0A0D0A0041542B43495053CF
:100D2700454E443D380D0A0D0A0041542B434950A6
:100D3700434C4F53450D0A0D0A3539363831353690
:010D47003279
:10101E00021100008A000000000000000000000025
:0A102E000108000115000213000A7A
:100DDB008E118F12120D48D3E5109400E50F64802D
:100DEB0094804003020E16D3E50E9400E50D64804B
:100DFB0094804003020FB9D3E50C9400E50B64809B
:0B0E0B009480400302000312104E22EE
:040F8F007F017E0060
:100F9300E4FDFCC3ED9FEE6480F8EC64809850158B
:100FA300E4FBFA0BBB00010ABA02F8BB26F50DBD40
:050FB30000010C80DECE
:010FB8002216
:100D4800AE11AF127C037DE81205978E0F8F10AE9F
:100D580011AF127C037DE81205977E007F64CFCD2A
:100D6800CFCECCCE1205978E0D8F0EAE11AF127C62
:100D7800007D641205977E007F0ACFCDCFCECCCE02
:100D88001205978E0B8F0CAE11AF127C007D0A12E4
:070D980005978C098D0A226A
:0E104E00900CF1E493F5A0AF0AAE09020FF486
:10000300E4F52DF52E900CF293F5A0AF0CAE0B1288
:0E0013000FF47F02120FE47F027E00020F93B3
:100FB900900CF3E493F5A0AF0EAE0D120FF4120FDF
:100FC9008F900CF2E493F5A0AF0CAE0B120FF41254
:090FD9000FE27F027E00020F937B
:100E1600900CF4E493F5A0AF10AE0F120FF4120F7E
:100E26008F900CF3E493F5A0AF0EAE0D120FF412F3
:100E36000F8F900CF2E493F5A0AF0CAE0B120FF4EB
:0A0E4600120FE27F017E00020F93FD
:100FE2007F017E00120F93900CF1E493F5A0AF0AFB
:020FF200AE0946
:0F0FF40074E72FF582740C3EF583E493F58022A9
:10100300C2AB53890F438920758DFD758BFDD28E3D
:0B101300C29FD29ED29CD2AFD2AC2272
:100E8800E4FE780A7C007DFE7BFF7A0C79F57F2BE7
:100E9800120544C299E4FEFF740A2FF8E2F599306E
:100EA80099FDC2990FBF00010EEF642B4E70E97FC8
:060EB8000A7E00020F9308
:100EBE00E4FE780A7C007DFE7BFF7A0D79207F119F
:100ECE00120544C299E4FEFF740A2FF8E2F5993038
:100EDE0099FDC2990FBF00010EEF64114E70E97FAC
:060EEE000A7E00020F93D2
:100EF400E4FE780A7C007DFE7BFF7A0D79317F0F5A
:100F0400120544C299E4FEFF740A2FF8E2F5993001
:100F140099FDC2990FBF00010EEF640F4E70E97F77
:060F24000A7E00020F939B
:060F5E008B308A3189325C
:100F6400E4FFFEC299AB30AA31A9328F828E83127C
:100F7400056AF5993099FDC2990FBF00010EEF641F
:0B0F8400084E70E17F0A7E00020F9310
:040669008E368F3703
:10066D00E4F53BF53AF539F538F53C753D01C3E553
:10067D003D9537E5366480F8E53C6480984003028B
:10068D000712AB3BAA3AA939A838C000C001C00275
:10069D00C003E53724FFFFE53634FFFEC3EF953D7C
:1006AD00FDEE953CFC1202A28F458E448D438C428B
:1006BD007F007E007D207C41120A1FC004C005C052
:1006CD0006C0077400253DF8E2FF3395E0FEEF24E8
:1006DD00D0FDEE34FFFC1202A2D003D002D001D027
:1006ED000012011ED003D002D001D00012002D8FB8
:1006FD003B8E3A8D398C38053DE53D600302067B16
:10070D00053C02067B053DE53D7002053C75360056
:10071D007537017BFE7A007900121039EF24FFFF47
:10072D00EE34FFFEC3E53D9FE53C9E507EAB3BAAFC
:10073D003AA939A838C000C001C002C003C3E4956E
:10074D0037FDE49536FC1202A28F458E448D438C05
:10075D00427F007E007D207C41120A1FC004C0052F
:10076D00C006C0077400253DF8E2FF3395E0FEEFAB
:10077D0024D0FDEE34FFFC1202A2D003D002D00132
:10078D00D00012011ED003D002D001D00012002DD6
:10079D008F3B8E3A8D398C38053DE53D7002053C19
:1007AD000537E53770020536020720AF3BAE3AAD8F
:0307BD0039AC381C
:0107C0002216
:1008F600E4F530F531F535F534F533F532F5307587
:1009060031017BFE7A007900121039EF24FFFFEEE9
:1009160034FFFEC3E5319FE5309E501A7400253141
:10092600F8E2B42E07AF31AE300206690531E53183
:1009360070D0053080CC7530007531017BFE7A00B1
:100946007900121039EF24FFFFEE34FFFEC3E531C4
:100956009FE5309E40030209EAAB35AA34A933A8C5
:1009660032C000C001C002C0037BFE7A00790012CB
:100976001039EF24FEFFEE34FFFEC3EF9531FDEE96
:100986009530FCE41202A28F458E448D438C427F43
:10099600007E007D207C41120A1FC004C005C006EF
:1009A600C00774002531F8E2FF3395E0FEEF24D04E
:1009B600FDEE34FFFC1202A2D003D002D001D0001B
:1009C60012011ED003D002D001D00012002D8F35A7
:1009D6008E348D338C320531E531600302094205D0
:1009E600300209427BFE7A007900121039D3EF9467
:1009F60004EE9400401AAF35AE34AD33AC32E4FBAE
:100A0600FA7980783F12002D8F358E348D338C32F3
:080A1600AF35AE34AD33AC3254
:010A1E0022B5
:100D9F00E4F530F531E515602BE531643145307000
:100DAF0009120EF4E4FFFEFDFC227F147E00120FE9
:100DBF00930531E53170020530C39432E53064801C
:0B0DCF00948040D1E4FFFE7D807C3F5B
:010DDA0022F6
:100E50008B2D8A2E892FE4F515120E88120EBE7581
:100E60001501AB2DAA2EA92F120F5E7F0A7E00124C
:100E70000F93120D9FE4FBFAF9F81202247005FF9C
:080E8000FEFDFC221208F6221F
:07105C00121003120E5022D6
:03002300020C5C70
:100C5C00C0E0C0F0C083C082C0D075D000C000C05E
:100C6C0001C002C003C004C005C006C007C29885FD
:100C7C009908E515640170487BFE7A007900121022
:100C8C0039EF4E60107BFE7A007900121039740037
:100C9C002FF8E508F2E508B423107BFE7A00790002
:100CAC0012103974002FF8E508F2E508B440117BF6
:100CBC00FE7A00790012103974002FF8E4F2F51561
:100CCC00D007D006D005D004D003D002D001D0007C
:0B0CDC00D0D0D082D083D0F0D0E03226
:100F2A0078217C007D007BFF7A0D79407E007F0866
:100F3A001205447B007A00792112105C8F2C8E2BCB
:100F4A008D2A8C29AF2CAE2BAD2AAC291202DB12CA
:040F5A000DDB80F03B
:10002600020347E86480F8E933E83360110460F0BE
:10003600ED33EC337009E8FCE9FDEAFEEBFF220440
:1000460060DED3EB9FEA9EE99DE8C2E78CF0C2F73B
:1000560095F0400CE8CCF8E9CDF9EACEFAEBCFFB07
:1000660012031285D0F05804700320D5B3E804704B
:10007600075002B2D502035192D5EC0460F7E4CCE6
:10008600C0E0C398F8603B94186008400DD0E0FBD0
:10009600020329E4FBFAC9FC8028E830E406E4C937
:1000A600FBE4CAFCE830E305E4C9CACBFCE8540724
:1000B6006010F8C3E913F9EA13FAEB13FBEC13FC2F
:1000C600D8F130F52FC3E49CFCEF9BFFEE9AFEEDD2
:1000D60099FDD0E0FBEF4E4D4C701222DB0302037C
:1000E6004EEC2CFCEF33FFEE33FEED33FDED30E747
:1000F600EB020329EF2BFFEE3AFEED39FDD0E0FBD4
:1001060050130BBB0003020351ED13FDEE13FEEF7C
:0801160013FFEC13FC020329A6
:10011E00EC4D6011E8497017ED33EC3304600DE4DB
:10012E00FCFFFEFD22E933E8330470F802034712A8
:10013E00031258046009E4CC2481500628500902A9
:10014E00035128400302034EC0E0EB4A7044B980CD
:10015E0006D0E0FB02033DEF4E701CBD8008EBFFA6
:10016E00EAFEE9FD80EBE98DF0A4FEE5F002020760
:10017E00E9CDF9EAFEEBFFEF89F0A4FCE5F0CE89BC
:10018E00F0A42EFFE435F0CD89F0A42DFEE435F079
:10019E008067EF4E7005BD80D780C3EF8BF0A4ACA7
:1001AE00F0EE8BF0A42CFCE435F0F8EF8AF0A42CE2
:1001BE00E5F038FCE433CB8DF0A42CFCE5F03BF8F5
:1001CE00EE8AF0A42CFCE5F038F8E433CF89F0A4E5
:1001DE002CFCE5F038CF3400CE89F0A42FFFE5F0EB
:1001EE003EFEE433C98DF0A42EFEE5F039CD8AF043
:1001FE00A42FFFE5F03EFEE43DFD33D0E0FB5007BB
:10020E000BBB000F020351EC2CFCEF33FFEE33FE61
:06021E00ED33FD0203298F
:1002240074F8CC6480CCC86480C8F58204604FC381
:10023400EB9FF5F0EA9E42F0E99D42F0E89C45F020
:10024400603C501DE5825FFFE582D313CB5BCBF4AA
:100254002B5582FB50280ABA002409B900200880D3
:100264001DE5825BFBE582D313CF5FCFF4C3132F6D
:100274005582FF50090EBE00050DBD00010CC3EBF5
:100284009FF5F0EA9E42F0E99D42F0E89C45F0605B
:0902940007CC4820E701B3EC227D
:10029D0075F020800E75F010800575F0087D007EDC
:1002AD00007F003392D530D5031205CDEC334010CD
:1002BD00EF33FFEE33FEED33FDEC33FCD5F0ED22E5
:0E02CD00E5F0247EA2D513CC92E7CDCEFF2221
:1002DB00EDD2E7CD33EC3392D524814006E4FFFE1B
:1002EB00FDFC22FCE4CFCECDCC24E0501174FF807A
:1002FB00EDC3CC13CCCD13CDCE13CECF13CF047017
:07030B00F030D5DE0205CD44
:100A1F008F418E408D3F8C3EE4FFFE7D807C3FAB4F
:100A2F0041AA40A93FA83E1202247009AF41AE402F
:100A3F00AD3FAC3E22AF41AE40AD3FAC3E12035C8A
:100A4F00FBAF45AE44AD43AC4212035CFFBF0108A0
:100A5F00E4FFFE7D807C3F22EF64046022EB6404A0
:100A6F00601DBB0127E4FFFEFDFCAB45AA44A94373
:100A7F00A84212022460084006E4FFFEFDFC227427
:100A8F00FFF545F544F543F542020B2DE4F546F528
:100A9F0047FFFEFDFCAB41AA40A93FA83E1202242E
:100AAF00504BAF45AE44AD43AC421202DB8E468F86
:100ABF0047AC46AD47EC1202A2C8ECC8C9EDC9CA93
:100ACF00EECACBEFCBAF45AE44AD43AC42120029DB
:100ADF00E4FBFAF9F812022470A5AF41AE40AD3F26
:100AEF00AC3E1203768F418E408D3F8C3EAF41AEB0
:100AFF0040AD3FAC3E1207F5AB45AA44A943A8420F
:100B0F0012011E120B6E8F458E448D438C42E547AA
:100B1F0030E00B1203768F458E448D438C42AF45E8
:070B2F00AE44AD43AC4222CD
:10031200E9D2E7C933E833F892D5EDD2E7CD33EC31
:0703220033FC5002B2D522AA
:10032900EC30E7100FBF000C0EBE00080DBD000435
:100339000BEB6014A2D5EB13FCED92E7FD2274FFE1
:10034900FCFDFEFF22E480F8A2D574FF13FC7D803A
:03035900E480EF4E
:10035C00ED33EC33601004700FED547F70057402B4
:0A036C0092E0227404220422E4222D
:10037600ED33EC33600A047003BD8004ECB2E7FC95
:010386002254
:100B360033DA929E35B16011377FE5FE392184891B
:100B46003AAEC3FF3C1D955B3D6358473E75FDF0CD
:100B56003F3172183F800000C2D50203510203479D
:100B6600BD80FA50F302034EED33EC330460F17BA3
:100B76003B7AAA79B8783F12011EED33EC3392D551
:100B8600247B5011A2D570DB500BED448024045019
:100B960004A2D580CEEFFBEEFAEDF9ECF81202DBFB
:100BA600EFF582F404FC1202A712002DC082900B0E
:100BB600367409120436ED33CC33D0F092D525F0D5
:0A0BC600A2D57001C313CC13FD2269
:1007C1003E9248DA3ECCCCCD3F2AAAAB4000000095
:1007D1003F8000003F9837F03FB504F33FD744FC1A
:1007E1003E3172173EB172173F0515913EDE5BD95E
:1007F100D2008002C200EDD2E7F8CD33EC330470B1
:100801000BBD800592D502035102034740FBD3146F
:1008110060F2F5F07C3FEE7A00C39496C8948B4069
:10082100230AC89469C8941A401A0AC89468C894DB
:100831001F40110AC8945AC89425400805F07A004F
:10084100CDC2E7CDC0F08C488D498E4A8F4BEA234B
:1008510023C0E024D1F582E43407F5831205EB12BD
:10086100002DECC0E0EDC0E0EEC0E0EFC0E012050D
:10087100DBA848A949AA4AAB4B120029D0E0FBD01A
:10088100E0FAD0E0F9D0E0B2E7F812038A8C488DA3
:10089100498E4A8F4B9007C17403120427A848A9B7
:1008A10049AA4AAB4B12011ED0E0600F24DDF5824C
:1008B100E43407F5831205EB12002D8C488D498E27
:1008C1004A8F4BD0E0C3947FFDE49400FC1202A256
:1008D1007B187A727931783F12011EA848A949AA7A
:1008E1004AAB4B12002D30000B7BD97A5B79DE7855
:0508F1003E12011E2271
:10038700020351EC5D046005E8590470030203475A
:10039700120312580460F6EC4860F2EC7004FDFE9C
:1003A700FF22C860DB2481C85009C3986002500649
:1003B70002034E9850CAF582E9294B4A7005AB8271
:1003C70002033D75F0007C1A7880C3EF9BEE9AED2F
:1003D70099400DC3EF9BFFEE9AFEED99FDE842F0C1
:1003E700DC23ACF0D0E0FFD0E0FED0E0FDAB822014
:1003F700E7101BEB60BAEC2CFCEF33FFEE33FEED9E
:1004070033FD020329E803F830E705C0F075F00073
:10041700EF2FFFEE33FEED33FD40B830E7C280AA81
:10042700C0E0EFFBEEFAEDF9ECF812011ED0E0F5B3
:10043700F0EFFBEEFAEDF9ECF81205DBA3A3A3A3AB
:10044700E8C0E0E9C0E0EAC0E0EBC0E0C0F01201BC
:100457001E1205EBA3A3A3A312002DD0F0D0E0FB3F
:0D046700D0E0FAD0E0F9D0E0F8D5F0D422D2
:100BDC00020F2AE493A3F8E493A34003F68001F2F6
:100BEC0008DFF48029E493A3F85407240CC8C3331A
:100BFC00C4540F4420C8834004F456800146F6DFE9
:100C0C00E4800B010204081020408090101EE47E4A
:100C1C00019360BCA3FF543F30E509541FFEE493DD
:100C2C00A360010ECF54C025E060A840B8E493A3A4
:100C3C00FAE493A3F8E493A3C8C582C8CAC583CACF
:100C4C00F0A3C8C582C8CAC583CADFE9DEE780BE87
:0110380000B7
:10047400E709F608DFFA8046E709F208DFFA803E6A
:1004840088828C83E709F0A3DFFA8032E309F60857
:10049400DFFA8078E309F208DFFA807088828C83BF
:1004A400E309F0A3DFFA806489828A83E0A3F60873
:1004B400DFFA805889828A83E0A3F208DFFA804C4D
:1004C40080D280FA80C680D4806980F28033801024
:1004D40080A680EA809A80A880DA80E280CA80338D
:1004E40089828A83ECFAE493A3C8C582C8CCC58305
:1004F400CCF0A3C8C582C8CCC583CCDFE9DEE780D5
:100504000D89828A83E493A3F608DFF9ECFAA9F053
:10051400EDFB2289828A83ECFAE0A3C8C582C8CCA9
:10052400C583CCF0A3C8C582C8CCC583CCDFEADEC2
:10053400E880DB89828A83E493A3F208DFF980CC24
:1005440088F0EF60010E4E60C388F0ED2402B4041D
:100554000050B9F582EB2402B4040050AF232345C4
:0605640082239004C47321
:10056A00BB010CE58229F582E5833AF583E0225046
:10057A0006E92582F8E622BBFE06E92582F8E22290
:0D058A00E58229F582E5833AF583E49322AA
:10059700C2D5EC30E709B2D5E4C39DFDE49CFCEE7F
:1005A70030E715B2D5E4C39FFFE49EFE120614C3DD
:1005B700E49DFDE49CFC800312061430D507C3E4D8
:0605C7009FFFE49EFE22EE
:0E05CD00C3E49FFFE49EFEE49DFDE49CFC223F
:1005DB00E493FC740193FD740293FE740393FF2266
:1005EB00E493F8740193F9740293FA740393FB2266
:10103900E4FFFE1205FB600C0FEF70010E09E97069
:05104900F20A80EF2215
:1005FB00BB010689828A83E0225002E722BBFE02FE
:09060B00E32289828A83E4932230
:10061400BC000BBE0029EF8DF084FFADF022E4CCCA
:10062400F875F008EF2FFFEE33FEEC33FCEE9DEC93
:10063400984005FCEE9DFE0FD5F0E9E4CEFD22EDD9
:10064400F8F5F0EE8420D21CFEADF075F008EF2F23
:10065400FFED33FD4007985006D5F0F222C398FD14
:050664000FD5F0EA22B1
:00000001FF
